{
  "contractName": "Channel",
  "abi": [
    {
      "constant": true,
      "inputs": [],
      "name": "title",
      "outputs": [
        {
          "name": "",
          "type": "string"
        }
      ],
      "payable": false,
      "stateMutability": "view",
      "type": "function"
    },
    {
      "constant": true,
      "inputs": [],
      "name": "description",
      "outputs": [
        {
          "name": "",
          "type": "string"
        }
      ],
      "payable": false,
      "stateMutability": "view",
      "type": "function"
    },
    {
      "constant": true,
      "inputs": [],
      "name": "owner",
      "outputs": [
        {
          "name": "",
          "type": "address"
        }
      ],
      "payable": false,
      "stateMutability": "view",
      "type": "function"
    },
    {
      "constant": true,
      "inputs": [],
      "name": "channelVersion",
      "outputs": [
        {
          "name": "",
          "type": "string"
        }
      ],
      "payable": false,
      "stateMutability": "view",
      "type": "function"
    },
    {
      "inputs": [
        {
          "name": "_title",
          "type": "string"
        },
        {
          "name": "_description",
          "type": "string"
        }
      ],
      "payable": false,
      "stateMutability": "nonpayable",
      "type": "constructor"
    },
    {
      "anonymous": false,
      "inputs": [
        {
          "indexed": true,
          "name": "itemEnum",
          "type": "uint8"
        },
        {
          "indexed": true,
          "name": "itemHash",
          "type": "bytes32"
        },
        {
          "indexed": false,
          "name": "itemJson",
          "type": "string"
        },
        {
          "indexed": false,
          "name": "addedOn",
          "type": "uint256"
        }
      ],
      "name": "ItemData",
      "type": "event"
    },
    {
      "constant": false,
      "inputs": [],
      "name": "kill",
      "outputs": [],
      "payable": false,
      "stateMutability": "nonpayable",
      "type": "function"
    },
    {
      "constant": false,
      "inputs": [
        {
          "name": "itemHash",
          "type": "bytes32"
        },
        {
          "name": "itemInfo",
          "type": "string"
        },
        {
          "name": "itemEnum",
          "type": "uint8"
        }
      ],
      "name": "addItemToChannel",
      "outputs": [
        {
          "name": "_itemHash",
          "type": "bytes32"
        }
      ],
      "payable": false,
      "stateMutability": "nonpayable",
      "type": "function"
    },
    {
      "constant": false,
      "inputs": [
        {
          "name": "itemHash",
          "type": "bytes32"
        },
        {
          "name": "itemEnum",
          "type": "uint8"
        }
      ],
      "name": "removeItem",
      "outputs": [
        {
          "name": "success",
          "type": "bool"
        }
      ],
      "payable": false,
      "stateMutability": "nonpayable",
      "type": "function"
    },
    {
      "constant": true,
      "inputs": [
        {
          "name": "itemHash",
          "type": "bytes32"
        },
        {
          "name": "itemEnum",
          "type": "uint8"
        }
      ],
      "name": "itemIndex",
      "outputs": [
        {
          "name": "index",
          "type": "uint256"
        }
      ],
      "payable": false,
      "stateMutability": "view",
      "type": "function"
    },
    {
      "constant": true,
      "inputs": [
        {
          "name": "itemEnum",
          "type": "uint8"
        }
      ],
      "name": "returnItems",
      "outputs": [
        {
          "name": "items",
          "type": "bytes32[]"
        }
      ],
      "payable": false,
      "stateMutability": "view",
      "type": "function"
    },
    {
      "constant": true,
      "inputs": [
        {
          "name": "itemEnum",
          "type": "uint8"
        }
      ],
      "name": "itemCount",
      "outputs": [
        {
          "name": "total",
          "type": "uint256"
        }
      ],
      "payable": false,
      "stateMutability": "view",
      "type": "function"
    }
  ],
  "bytecode": "0x6060604052341561000f57600080fd5b604051610cce380380610cce8339810160405280805182019190602001805182019190505033600460006101000a81548173ffffffffffffffffffffffffffffffffffffffff021916908373ffffffffffffffffffffffffffffffffffffffff160217905550426001819055506040805190810160405280600581526020017f302e342e30000000000000000000000000000000000000000000000000000000815250600590805190602001906100c79291906100fd565b5080600390805190602001906100de9291906100fd565b5081600290805190602001906100f59291906100fd565b5050506101a2565b828054600181600116156101000203166002900490600052602060002090601f016020900481019282601f1061013e57805160ff191683800117855561016c565b8280016001018555821561016c579182015b8281111561016b578251825591602001919060010190610150565b5b509050610179919061017d565b5090565b61019f91905b8082111561019b576000816000905550600101610183565b5090565b90565b610b1d806101b16000396000f3006060604052600436106100a4576000357c0100000000000000000000000000000000000000000000000000000000900463ffffffff16806341c0e1b5146100a95780634a79d50c146100be5780635c7b65571461014c57806365211b29146101865780637284e416146101cd578063893132861461025b5780638da5cb5b146102d65780639da23ecf1461032b578063fa93a93d146103b9578063fc1e64141461044b575b600080fd5b34156100b457600080fd5b6100bc610496565b005b34156100c957600080fd5b6100d161052d565b6040518080602001828103825283818151815260200191508051906020019080838360005b838110156101115780820151818401526020810190506100f6565b50505050905090810190601f16801561013e5780820380516001836020036101000a031916815260200191505b509250505060405180910390f35b341561015757600080fd5b610170600480803560ff169060200190919050506105cb565b6040518082815260200191505060405180910390f35b341561019157600080fd5b6101b760048080356000191690602001909190803560ff169060200190919050506105f0565b6040518082815260200191505060405180910390f35b34156101d857600080fd5b6101e061069a565b6040518080602001828103825283818151815260200191508051906020019080838360005b83811015610220578082015181840152602081019050610205565b50505050905090810190601f16801561024d5780820380516001836020036101000a031916815260200191505b509250505060405180910390f35b341561026657600080fd5b61027f600480803560ff16906020019091905050610738565b6040518080602001828103825283818151815260200191508051906020019060200280838360005b838110156102c25780820151818401526020810190506102a7565b505050509050019250505060405180910390f35b34156102e157600080fd5b6102e96107b2565b604051808273ffffffffffffffffffffffffffffffffffffffff1673ffffffffffffffffffffffffffffffffffffffff16815260200191505060405180910390f35b341561033657600080fd5b61033e6107d8565b6040518080602001828103825283818151815260200191508051906020019080838360005b8381101561037e578082015181840152602081019050610363565b50505050905090810190601f1680156103ab5780820380516001836020036101000a031916815260200191505b509250505060405180910390f35b34156103c457600080fd5b61042d60048080356000191690602001909190803590602001908201803590602001908080601f0160208091040260200160405190810160405280939291908181526020018383808284378201915050505050509190803560ff16906020019091905050610876565b60405180826000191660001916815260200191505060405180910390f35b341561045657600080fd5b61047c60048080356000191690602001909190803560ff169060200190919050506109d0565b604051808215151515815260200191505060405180910390f35b600460009054906101000a900473ffffffffffffffffffffffffffffffffffffffff1673ffffffffffffffffffffffffffffffffffffffff163373ffffffffffffffffffffffffffffffffffffffff161415156104f257600080fd5b600460009054906101000a900473ffffffffffffffffffffffffffffffffffffffff1673ffffffffffffffffffffffffffffffffffffffff16ff5b60028054600181600116156101000203166002900480601f0160208091040260200160405190810160405280929190818152602001828054600181600116156101000203166002900480156105c35780601f10610598576101008083540402835291602001916105c3565b820191906000526020600020905b8154815290600101906020018083116105a657829003601f168201915b505050505081565b60008060008360ff1660ff168152602001908152602001600020805490509050919050565b6000807fffffffffffffffffffffffffffffffffffffffffffffffffffffffffffffffff9150600090505b6000808460ff1660ff16815260200190815260200160002080549050811015610693576000808460ff1660ff1681526020019081526020016000208181548110151561066357fe5b906000526020600020900154600019168460001916141561068657809150610693565b808060010191505061061b565b5092915050565b60038054600181600116156101000203166002900480601f0160208091040260200160405190810160405280929190818152602001828054600181600116156101000203166002900480156107305780601f1061070557610100808354040283529160200191610730565b820191906000526020600020905b81548152906001019060200180831161071357829003601f168201915b505050505081565b610740610a8c565b6000808360ff1660ff1681526020019081526020016000208054806020026020016040519081016040528092919081815260200182805480156107a657602002820191906000526020600020905b8154600019168152602001906001019080831161078e575b50505050509050919050565b600460009054906101000a900473ffffffffffffffffffffffffffffffffffffffff1681565b60058054600181600116156101000203166002900480601f01602080910402602001604051908101604052809291908181526020018280546001816001161561010002031660029004801561086e5780601f106108435761010080835404028352916020019161086e565b820191906000526020600020905b81548152906001019060200180831161085157829003601f168201915b505050505081565b6000600460009054906101000a900473ffffffffffffffffffffffffffffffffffffffff1673ffffffffffffffffffffffffffffffffffffffff163373ffffffffffffffffffffffffffffffffffffffff161415156108d457600080fd5b83600019168260ff167f78c99993dc3945a7b513b5ddcb2979653ffed26ca1b4cfce3d1bbdac3f33824c85426040518080602001838152602001828103825284818151815260200191508051906020019080838360005b8381101561094657808201518184015260208101905061092b565b50505050905090810190601f1680156109735780820380516001836020036101000a031916815260200191505b50935050505060405180910390a36000808360ff1660ff16815260200190815260200160002080548060010182816109ab9190610aa0565b9160005260206000209001600086909190915090600019169055508390509392505050565b600080600460009054906101000a900473ffffffffffffffffffffffffffffffffffffffff1673ffffffffffffffffffffffffffffffffffffffff163373ffffffffffffffffffffffffffffffffffffffff16141515610a2f57600080fd5b60009150610a3d84846105f0565b90506000811015610a4d57600080fd5b6000808460ff1660ff16815260200190815260200160002081815481101515610a7257fe5b906000526020600020900160009055600191505092915050565b602060405190810160405280600081525090565b815481835581811511610ac757818360005260206000209182019101610ac69190610acc565b5b505050565b610aee91905b80821115610aea576000816000905550600101610ad2565b5090565b905600a165627a7a7230582054f85e9eaf4c4e72cbd3bbec619e9baf3f71e561cff98e43eac0be690aad6f750029",
  "source": "pragma solidity ^0.4.11;\n\ncontract Channel {\n    \n    mapping(uint8 => bytes32[]) Items;\n    \n    uint256 createdOn;\n    string public title;\n    string public description;\n    address public owner;\n    string public channelVersion;\n\n    modifier onlyOwner() {\n        require(msg.sender == owner);\n        _;\n    }\n\n    event ItemData(uint8 indexed itemEnum, bytes32 indexed itemHash, string itemJson, uint256 addedOn);\n\n    function Channel(string _title, string _description) public {  \n        owner = msg.sender;\n        createdOn = now;\n        channelVersion = \"0.4.0\";\n        description = _description;\n        title = _title;\n    }\n\n    function kill() onlyOwner() public {\n        selfdestruct(owner);\n    }\n\n    function addItemToChannel(bytes32 itemHash, string itemInfo, uint8 itemEnum) onlyOwner() public returns (bytes32 _itemHash) {\n        emit ItemData(itemEnum, itemHash, itemInfo, now);\n        Items[itemEnum].push(itemHash);\n        _itemHash = itemHash;\n    }\n\n    function removeItem(bytes32 itemHash, uint8 itemEnum) onlyOwner() public returns (bool success) {\n        success = false;\n        uint256 index = itemIndex(itemHash,itemEnum);\n        if (index < 0) {\n            revert();\n        } else {\n            delete(Items[itemEnum][index]);\n            success = true;\n        }\n    }\n\n    function itemIndex(bytes32 itemHash, uint8 itemEnum) public constant returns (uint256 index) {\n        index = uint256(-1);\n        for (uint256 i = 0; i < Items[itemEnum].length; i++) {\n            if (itemHash == Items[itemEnum][i]) {\n                index = i;\n                break;\n            }\n        }\n    }\n\n    function returnItems(uint8 itemEnum) public constant returns (bytes32[] items) {\n        items = Items[itemEnum];\n    }\n    \n    function itemCount(uint8 itemEnum) public constant returns (uint256 total) {\n        total = Items[itemEnum].length;\n    }\n    \n}\n",
  "sourcePath": "/home/heish/Documents/Repos/HueyHex/contracts/contracts/Channel.sol",
  "compiler": {
    "name": "solc",
    "version": "0.4.21+commit.dfe3193c.Emscripten.clang"
  },
  "schemaVersion": "2.0.0",
  "updatedAt": "2018-04-30T02:44:16.698Z"
}