{
  "contractName": "Channel",
  "abi": [
    {
      "constant": false,
      "inputs": [],
      "name": "registerChannel",
      "outputs": [],
      "payable": false,
      "stateMutability": "nonpayable",
      "type": "function"
    },
    {
      "constant": false,
      "inputs": [],
      "name": "kill",
      "outputs": [],
      "payable": false,
      "stateMutability": "nonpayable",
      "type": "function"
    },
    {
      "constant": true,
      "inputs": [],
      "name": "title",
      "outputs": [
        {
          "name": "",
          "type": "string"
        }
      ],
      "payable": false,
      "stateMutability": "view",
      "type": "function"
    },
    {
      "constant": false,
      "inputs": [
        {
          "name": "_registerAddress",
          "type": "address"
        }
      ],
      "name": "updateRegisterLocation",
      "outputs": [
        {
          "name": "success",
          "type": "bool"
        }
      ],
      "payable": false,
      "stateMutability": "nonpayable",
      "type": "function"
    },
    {
      "constant": true,
      "inputs": [
        {
          "name": "itemEnum",
          "type": "uint8"
        }
      ],
      "name": "itemCount",
      "outputs": [
        {
          "name": "total",
          "type": "uint256"
        }
      ],
      "payable": false,
      "stateMutability": "view",
      "type": "function"
    },
    {
      "constant": true,
      "inputs": [
        {
          "name": "itemHash",
          "type": "bytes32"
        },
        {
          "name": "itemEnum",
          "type": "uint8"
        }
      ],
      "name": "itemIndex",
      "outputs": [
        {
          "name": "index",
          "type": "uint256"
        }
      ],
      "payable": false,
      "stateMutability": "view",
      "type": "function"
    },
    {
      "constant": true,
      "inputs": [],
      "name": "description",
      "outputs": [
        {
          "name": "",
          "type": "string"
        }
      ],
      "payable": false,
      "stateMutability": "view",
      "type": "function"
    },
    {
      "constant": true,
      "inputs": [
        {
          "name": "itemEnum",
          "type": "uint8"
        }
      ],
      "name": "returnItems",
      "outputs": [
        {
          "name": "items",
          "type": "bytes32[]"
        }
      ],
      "payable": false,
      "stateMutability": "view",
      "type": "function"
    },
    {
      "constant": true,
      "inputs": [],
      "name": "owner",
      "outputs": [
        {
          "name": "",
          "type": "address"
        }
      ],
      "payable": false,
      "stateMutability": "view",
      "type": "function"
    },
    {
      "constant": true,
      "inputs": [],
      "name": "channelVersion",
      "outputs": [
        {
          "name": "",
          "type": "string"
        }
      ],
      "payable": false,
      "stateMutability": "view",
      "type": "function"
    },
    {
      "constant": true,
      "inputs": [],
      "name": "subAddress",
      "outputs": [
        {
          "name": "",
          "type": "address"
        }
      ],
      "payable": false,
      "stateMutability": "view",
      "type": "function"
    },
    {
      "constant": false,
      "inputs": [
        {
          "name": "itemHash",
          "type": "bytes32"
        },
        {
          "name": "itemInfo",
          "type": "string"
        },
        {
          "name": "itemEnum",
          "type": "uint8"
        }
      ],
      "name": "addItemToChannel",
      "outputs": [
        {
          "name": "_itemHash",
          "type": "bytes32"
        }
      ],
      "payable": false,
      "stateMutability": "nonpayable",
      "type": "function"
    },
    {
      "constant": false,
      "inputs": [
        {
          "name": "itemHash",
          "type": "bytes32"
        },
        {
          "name": "itemEnum",
          "type": "uint8"
        }
      ],
      "name": "removeItem",
      "outputs": [
        {
          "name": "success",
          "type": "bool"
        }
      ],
      "payable": false,
      "stateMutability": "nonpayable",
      "type": "function"
    },
    {
      "inputs": [
        {
          "name": "_title",
          "type": "string"
        },
        {
          "name": "_description",
          "type": "string"
        },
        {
          "name": "_registerAddress",
          "type": "address"
        }
      ],
      "payable": false,
      "stateMutability": "nonpayable",
      "type": "constructor"
    },
    {
      "anonymous": false,
      "inputs": [
        {
          "indexed": true,
          "name": "itemEnum",
          "type": "uint8"
        },
        {
          "indexed": true,
          "name": "itemHash",
          "type": "bytes32"
        },
        {
          "indexed": false,
          "name": "itemJson",
          "type": "string"
        },
        {
          "indexed": false,
          "name": "addedOn",
          "type": "uint256"
        }
      ],
      "name": "ItemData",
      "type": "event"
    }
  ],
  "bytecode": "0x606060405234156200001057600080fd5b60405162000fe938038062000fe98339810160405280805182019190602001805182019190602001805190602001909190505033600460006101000a81548173ffffffffffffffffffffffffffffffffffffffff021916908373ffffffffffffffffffffffffffffffffffffffff1602179055504260018190555080600660006101000a81548173ffffffffffffffffffffffffffffffffffffffff021916908373ffffffffffffffffffffffffffffffffffffffff1602179055506040805190810160405280600581526020017f302e332e30000000000000000000000000000000000000000000000000000000815250600590805190602001906200011992919062000155565b5081600390805190602001906200013292919062000155565b5082600290805190602001906200014b92919062000155565b5050505062000204565b828054600181600116156101000203166002900490600052602060002090601f016020900481019282601f106200019857805160ff1916838001178555620001c9565b82800160010185558215620001c9579182015b82811115620001c8578251825591602001919060010190620001ab565b5b509050620001d89190620001dc565b5090565b6200020191905b80821115620001fd576000816000905550600101620001e3565b5090565b90565b610dd580620002146000396000f3006060604052600436106100c5576000357c0100000000000000000000000000000000000000000000000000000000900463ffffffff1680631ed9d093146100ca57806341c0e1b5146100df5780634a79d50c146100f45780635bffa8ea146101825780635c7b6557146101d357806365211b291461020d5780637284e4161461025457806389313286146102e25780638da5cb5b1461035d5780639da23ecf146103b2578063e58ad45314610440578063fa93a93d14610495578063fc1e641414610527575b600080fd5b34156100d557600080fd5b6100dd610572565b005b34156100ea57600080fd5b6100f2610680565b005b34156100ff57600080fd5b610107610717565b6040518080602001828103825283818151815260200191508051906020019080838360005b8381101561014757808201518184015260208101905061012c565b50505050905090810190601f1680156101745780820380516001836020036101000a031916815260200191505b509250505060405180910390f35b341561018d57600080fd5b6101b9600480803573ffffffffffffffffffffffffffffffffffffffff169060200190919050506107b5565b604051808215151515815260200191505060405180910390f35b34156101de57600080fd5b6101f7600480803560ff1690602001909190505061085d565b6040518082815260200191505060405180910390f35b341561021857600080fd5b61023e60048080356000191690602001909190803560ff16906020019091905050610882565b6040518082815260200191505060405180910390f35b341561025f57600080fd5b61026761092c565b6040518080602001828103825283818151815260200191508051906020019080838360005b838110156102a757808201518184015260208101905061028c565b50505050905090810190601f1680156102d45780820380516001836020036101000a031916815260200191505b509250505060405180910390f35b34156102ed57600080fd5b610306600480803560ff169060200190919050506109ca565b6040518080602001828103825283818151815260200191508051906020019060200280838360005b8381101561034957808201518184015260208101905061032e565b505050509050019250505060405180910390f35b341561036857600080fd5b610370610a44565b604051808273ffffffffffffffffffffffffffffffffffffffff1673ffffffffffffffffffffffffffffffffffffffff16815260200191505060405180910390f35b34156103bd57600080fd5b6103c5610a6a565b6040518080602001828103825283818151815260200191508051906020019080838360005b838110156104055780820151818401526020810190506103ea565b50505050905090810190601f1680156104325780820380516001836020036101000a031916815260200191505b509250505060405180910390f35b341561044b57600080fd5b610453610b08565b604051808273ffffffffffffffffffffffffffffffffffffffff1673ffffffffffffffffffffffffffffffffffffffff16815260200191505060405180910390f35b34156104a057600080fd5b61050960048080356000191690602001909190803590602001908201803590602001908080601f0160208091040260200160405190810160405280939291908181526020018383808284378201915050505050509190803560ff16906020019091905050610b2e565b60405180826000191660001916815260200191505060405180910390f35b341561053257600080fd5b61055860048080356000191690602001909190803560ff16906020019091905050610c88565b604051808215151515815260200191505060405180910390f35b6000600460009054906101000a900473ffffffffffffffffffffffffffffffffffffffff1673ffffffffffffffffffffffffffffffffffffffff163373ffffffffffffffffffffffffffffffffffffffff161415156105d057600080fd5b600660009054906101000a900473ffffffffffffffffffffffffffffffffffffffff1690508073ffffffffffffffffffffffffffffffffffffffff16631acb2dca6000604051602001526040518163ffffffff167c0100000000000000000000000000000000000000000000000000000000028152600401602060405180830381600087803b151561066157600080fd5b6102c65a03f1151561067257600080fd5b505050604051805190505050565b600460009054906101000a900473ffffffffffffffffffffffffffffffffffffffff1673ffffffffffffffffffffffffffffffffffffffff163373ffffffffffffffffffffffffffffffffffffffff161415156106dc57600080fd5b600460009054906101000a900473ffffffffffffffffffffffffffffffffffffffff1673ffffffffffffffffffffffffffffffffffffffff16ff5b60028054600181600116156101000203166002900480601f0160208091040260200160405190810160405280929190818152602001828054600181600116156101000203166002900480156107ad5780601f10610782576101008083540402835291602001916107ad565b820191906000526020600020905b81548152906001019060200180831161079057829003601f168201915b505050505081565b6000600460009054906101000a900473ffffffffffffffffffffffffffffffffffffffff1673ffffffffffffffffffffffffffffffffffffffff163373ffffffffffffffffffffffffffffffffffffffff1614151561081357600080fd5b81600660006101000a81548173ffffffffffffffffffffffffffffffffffffffff021916908373ffffffffffffffffffffffffffffffffffffffff16021790555060019050919050565b60008060008360ff1660ff168152602001908152602001600020805490509050919050565b6000807fffffffffffffffffffffffffffffffffffffffffffffffffffffffffffffffff9150600090505b6000808460ff1660ff16815260200190815260200160002080549050811015610925576000808460ff1660ff168152602001908152602001600020818154811015156108f557fe5b906000526020600020900154600019168460001916141561091857809150610925565b80806001019150506108ad565b5092915050565b60038054600181600116156101000203166002900480601f0160208091040260200160405190810160405280929190818152602001828054600181600116156101000203166002900480156109c25780601f10610997576101008083540402835291602001916109c2565b820191906000526020600020905b8154815290600101906020018083116109a557829003601f168201915b505050505081565b6109d2610d44565b6000808360ff1660ff168152602001908152602001600020805480602002602001604051908101604052809291908181526020018280548015610a3857602002820191906000526020600020905b81546000191681526020019060010190808311610a20575b50505050509050919050565b600460009054906101000a900473ffffffffffffffffffffffffffffffffffffffff1681565b60058054600181600116156101000203166002900480601f016020809104026020016040519081016040528092919081815260200182805460018160011615610100020316600290048015610b005780601f10610ad557610100808354040283529160200191610b00565b820191906000526020600020905b815481529060010190602001808311610ae357829003601f168201915b505050505081565b600660009054906101000a900473ffffffffffffffffffffffffffffffffffffffff1681565b6000600460009054906101000a900473ffffffffffffffffffffffffffffffffffffffff1673ffffffffffffffffffffffffffffffffffffffff163373ffffffffffffffffffffffffffffffffffffffff16141515610b8c57600080fd5b83600019168260ff167f78c99993dc3945a7b513b5ddcb2979653ffed26ca1b4cfce3d1bbdac3f33824c85426040518080602001838152602001828103825284818151815260200191508051906020019080838360005b83811015610bfe578082015181840152602081019050610be3565b50505050905090810190601f168015610c2b5780820380516001836020036101000a031916815260200191505b50935050505060405180910390a36000808360ff1660ff1681526020019081526020016000208054806001018281610c639190610d58565b9160005260206000209001600086909190915090600019169055508390509392505050565b600080600460009054906101000a900473ffffffffffffffffffffffffffffffffffffffff1673ffffffffffffffffffffffffffffffffffffffff163373ffffffffffffffffffffffffffffffffffffffff16141515610ce757600080fd5b60009150610cf58484610882565b90506000811015610d0557600080fd5b6000808460ff1660ff16815260200190815260200160002081815481101515610d2a57fe5b906000526020600020900160009055600191505092915050565b602060405190810160405280600081525090565b815481835581811511610d7f57818360005260206000209182019101610d7e9190610d84565b5b505050565b610da691905b80821115610da2576000816000905550600101610d8a565b5090565b905600a165627a7a72305820f1e931cfe17615a734b916e1d3828f839cdde459b3a2c4745ccaec693ad796860029",
  "source": "pragma solidity ^0.4.11;\n\ncontract ERC20Interface {\n\n    function totalSupply() constant returns (uint256 totalSup);\n    function balanceOf(address _owner) constant returns (uint256 balance);\n    function transfer(address _to, uint256 _value) returns (bool success);\n    function transferFrom(address _from, address _to, uint256 _value) returns (bool success);\n    function approve(address _spender, uint256 _value) returns (bool success);\n    function allowance(address _owner, address _spender) constant returns (uint256 remaining);\n    event Transfer(address indexed _from, address indexed _to, uint256 _value);\n    event Approval(address indexed _owner, address indexed _spender, uint256 _value);\n\n}\n\ncontract HueyToken is ERC20Interface {\n\n    string public constant symbol = \"HUEY\";\n\n    string public constant name = \"HueyHex\";\n\n    uint8 public constant decimals = 18;\n\n    uint256 _totalSupply = 65000000;\n\n    address public owner;\n\n    address public hueyContract;\n\n    mapping(address => uint256) balances;\n\n    mapping(address => mapping (address => uint256)) allowed;\n\n    modifier onlyOwner() {\n        if (msg.sender != owner) {\n            revert();\n        }\n        _;\n    }\n\n    modifier onlyHueyContract() {\n        if (msg.sender != hueyContract) {\n            revert();\n        }\n        _;\n    }\n\n    // Constructor\n    function HueyToken() {\n        owner = msg.sender;\n        balances[owner] = _totalSupply;\n    }\n\n    function changeOwner(address _newOwner) onlyOwner() returns (bool success) {\n        owner = _newOwner;\n        return true;\n    }\n\n    function updateHueyAddress(address _contractAddress) onlyOwner() returns (bool success) {\n        hueyContract = _contractAddress;\n        return true;\n    }\n \n    function totalSupply() constant returns (uint256 totalSup) {\n        totalSup = _totalSupply;\n    }\n\n    function balanceOf(address _owner) constant returns (uint256 balance) {\n        return balances[_owner];\n    }\n\n    function transfer(address _to, uint256 _amount) returns (bool success) {\n        if (balances[msg.sender] >= _amount && _amount > 0 && balances[_to] + _amount > balances[_to]) {\n            balances[msg.sender] -= _amount;\n            balances[_to] += _amount;\n            Transfer(msg.sender, _to, _amount);\n            return true;\n        } else {\n            return false;\n        }\n    }\n\n    function donate(address _to, uint256 _amount) onlyHueyContract() returns (bool success) {\n        if (balances[tx.origin] >= _amount && _amount > 0 && balances[_to] + _amount > balances[_to]) {\n            balances[tx.origin] -= _amount;\n            balances[_to] += _amount;\n            Transfer(tx.origin, _to, _amount);\n            Donate(tx.origin, _to, _amount);\n            return true;\n        } else {\n            return false;\n        }\n    }\n\n    function transferFrom(address _from, address _to, uint256 _amount) returns (bool success) {\n        if (balances[_from] >= _amount && allowed[_from][msg.sender] >= _amount && _amount > 0 && balances[_to] + _amount > balances[_to]) {\n            balances[_from] -= _amount;\n            allowed[_from][msg.sender] -= _amount;\n            balances[_to] += _amount;\n            Transfer(_from, _to, _amount);\n            return true;\n        } else {\n            return false;\n        }\n    }\n\n    function approve(address _spender, uint256 _amount) returns (bool success) {\n        allowed[msg.sender][_spender] = _amount;\n        Approval(msg.sender, _spender, _amount);\n        return true;\n    }\n\n    function allowance(address _owner, address _spender) constant returns (uint256 remaining) {\n        return allowed[_owner][_spender];\n    }\n\n    event Donate(address indexed _from, address indexed _to, uint256 _value);\n\n}\n\ncontract Subscriptions {\n    \n    address public owner;\n\n    address public hueyTokenAddress;\n\n    modifier onlyOwner() {\n        require(msg.sender == owner);\n        _;\n    }\n\n    struct Channel {\n        address contractAddress;\n        uint256 subCount;\n        uint256 totalDonations;\n        uint256 donationCount;\n    }\n    \n    //mapping of address to their channel\n    mapping (address => Channel) public channels;\n    //mapping of address to their subs\n    mapping (address => address[]) public subs;\n\n    //mapping (address => uint256) public subscriberCount;\n\n    //initalize contract\n    function Subscriptions() {  \n        owner = msg.sender;\n    }\n\n    function changeOwner(address _newOwner) onlyOwner() returns (bool success) {\n        owner = _newOwner;\n        return true;\n    }\n\n    function changeTokenAddress(address _newTokenAddress) onlyOwner() returns (bool success) {\n        hueyTokenAddress = _newTokenAddress;\n        return true;\n    }\n\n    function registerChannelFromContract() returns (bool success) {\n        success = false;\n        if (channels[tx.origin].contractAddress != address(0x0)) {\n            revert();\n        }\n        channels[tx.origin] = Channel({\n            contractAddress:msg.sender,\n            subCount:0,\n            totalDonations:0,\n            donationCount:0\n        });\n        success = true;\n    }\n    \n    function registerChannelManually(address channelAdd) returns (bool success) {\n        success = false;\n        if (channelAdd == address(0x0)) {\n            revert();\n        }\n        if (channels[msg.sender].contractAddress != address(0x0)) {\n            revert();\n        }\n        channels[msg.sender] = Channel({\n            contractAddress:channelAdd,\n            subCount:0,\n            totalDonations:0,\n            donationCount:0\n        });\n        success = true;\n    }\n\n    function unregisterChannel() returns (bool success) {\n        channels[msg.sender].contractAddress = address(0x0);\n        return true;\n    }\n\n    function channelExist(address addr) constant returns (bool exist) {\n        exist = false;\n        if (channels[addr].contractAddress != address(0x0)) {\n            exist = true;\n        }\n    }\n\n    function subscribeToChannel(address addr) returns (bool success) {\n        success = false;\n        if (!channelExist(addr)) {\n            revert();\n        }\n        if (alreadySubscribed(msg.sender, addr)) {\n            revert();\n        }\n        subs[msg.sender].push(addr);\n        channels[addr].subCount = channels[addr].subCount + 1;\n    }\n\n    function returnChannels() constant returns (address[] _subs) {\n        _subs = subs[msg.sender];\n    }\n    \n    function totalSubscribers(address addr) constant returns (uint total) {\n        total = channels[addr].subCount;\n    }\n\n    function donateTo(address _channel, uint256 _amount) returns (bool success) {\n        success = false;\n        if (!channelExist(_channel)) {\n            revert();\n        }\n        if (_amount <= 0) {\n            revert();\n        }\n        HueyToken hueyTokenInstance = HueyToken(hueyTokenAddress);\n        var ret = hueyTokenInstance.donate(_channel, _amount);\n        if (ret) {\n            channels[_channel].totalDonations = channels[_channel].totalDonations + _amount;\n            channels[_channel].donationCount = channels[_channel].donationCount + 1;\n            success = true;\n        }\n        return success;\n    }\n\n    function alreadySubscribed(address sender, address channel) internal constant returns (bool subscribed) {\n        subscribed = false;\n        for (uint256 i = 0; i < subs[sender].length; i++) {\n            if (subs[sender][i] == channel) {\n                subscribed = true;\n            }\n        }\n    }\n\n    function returnContractAddress(address channel) constant returns (address conAddr) {\n        conAddr = channels[channel].contractAddress;\n    }\n    function returnSubCount(address channel) constant returns (uint256 subCount) {\n        subCount = channels[channel].subCount;\n    }\n    function returnTotalDonations(address channel) constant returns (uint256 totalDonations) {\n        totalDonations = channels[channel].totalDonations;\n    }\n    function returnDonationCount(address channel) constant returns (uint256 donationCount) {\n        donationCount = channels[channel].donationCount;\n    }\n}\n\ncontract Channel {\n    \n    mapping(uint8 => bytes32[]) Items;\n    \n    uint256 createdOn;\n    string public title;\n    string public description;\n    //bytes32[] public keyWords;\n    address public owner;\n    string public channelVersion;\n    address public subAddress;\n\n    modifier onlyOwner() {\n        require(msg.sender == owner);\n        _;\n    }\n\n    event ItemData(uint8 indexed itemEnum, bytes32 indexed itemHash, string itemJson, uint256 addedOn);\n\n    function Channel(string _title, string _description, address _registerAddress) {  \n        owner = msg.sender;\n        createdOn = now;\n        subAddress = _registerAddress;\n        channelVersion = \"0.3.0\";\n        description = _description;\n        title = _title;\n    }\n\n    function updateRegisterLocation(address _registerAddress) onlyOwner() returns (bool success) {\n        subAddress = _registerAddress;\n        success = true;\n    }\n\n    function registerChannel() onlyOwner() {\n        Subscriptions subContract = Subscriptions(subAddress);\n        subContract.registerChannelFromContract();\n    }\n\n    function kill() onlyOwner() {\n        selfdestruct(owner);\n    }\n\n    function addItemToChannel(bytes32 itemHash, string itemInfo, uint8 itemEnum) onlyOwner() returns (bytes32 _itemHash) {\n        ItemData(itemEnum, itemHash, itemInfo, now);\n        Items[itemEnum].push(itemHash);\n        _itemHash = itemHash;\n    }\n\n    function removeItem(bytes32 itemHash, uint8 itemEnum) onlyOwner() returns (bool success) {\n        success = false;\n        uint256 index = itemIndex(itemHash,itemEnum);\n        if (index < 0) {\n            revert();\n        } else {\n            delete(Items[itemEnum][index]);\n            success = true;\n        }\n    }\n\n\n    function itemIndex(bytes32 itemHash, uint8 itemEnum) constant returns (uint256 index) {\n        index = uint256(-1);\n        for (uint256 i = 0; i < Items[itemEnum].length; i++) {\n            if (itemHash == Items[itemEnum][i]) {\n                    index = i;\n                    break;\n            }\n        }\n    }\n\n    function returnItems(uint8 itemEnum) constant returns (bytes32[] items) {\n        items = Items[itemEnum];\n    }\n    \n    function itemCount(uint8 itemEnum) constant returns (uint256 total) {\n        total = Items[itemEnum].length;\n    }\n    \n}\n",
  "sourcePath": "/home/rick/Desktop/contracts/contracts/Channel.sol",
  "compiler": {
    "name": "solc",
    "version": "0.4.19+commit.c4cbbb05.Emscripten.clang"
  },
  "schemaVersion": "2.0.0",
  "updatedAt": "2018-02-28T17:39:26.686Z"
}