{
  "contractName": "Huey",
  "abi": [
    {
      "constant": true,
      "inputs": [],
      "name": "name",
      "outputs": [
        {
          "name": "",
          "type": "string"
        }
      ],
      "payable": false,
      "stateMutability": "view",
      "type": "function"
    },
    {
      "constant": true,
      "inputs": [
        {
          "name": "",
          "type": "address"
        }
      ],
      "name": "balances",
      "outputs": [
        {
          "name": "",
          "type": "uint256"
        }
      ],
      "payable": false,
      "stateMutability": "view",
      "type": "function"
    },
    {
      "constant": true,
      "inputs": [],
      "name": "decimals",
      "outputs": [
        {
          "name": "",
          "type": "uint8"
        }
      ],
      "payable": false,
      "stateMutability": "view",
      "type": "function"
    },
    {
      "constant": true,
      "inputs": [
        {
          "name": "",
          "type": "address"
        },
        {
          "name": "",
          "type": "address"
        }
      ],
      "name": "allowed",
      "outputs": [
        {
          "name": "",
          "type": "uint256"
        }
      ],
      "payable": false,
      "stateMutability": "view",
      "type": "function"
    },
    {
      "constant": true,
      "inputs": [],
      "name": "hueyContract",
      "outputs": [
        {
          "name": "",
          "type": "address"
        }
      ],
      "payable": false,
      "stateMutability": "view",
      "type": "function"
    },
    {
      "constant": true,
      "inputs": [],
      "name": "owner",
      "outputs": [
        {
          "name": "",
          "type": "address"
        }
      ],
      "payable": false,
      "stateMutability": "view",
      "type": "function"
    },
    {
      "constant": true,
      "inputs": [],
      "name": "symbol",
      "outputs": [
        {
          "name": "",
          "type": "string"
        }
      ],
      "payable": false,
      "stateMutability": "view",
      "type": "function"
    },
    {
      "inputs": [],
      "payable": false,
      "stateMutability": "nonpayable",
      "type": "constructor"
    },
    {
      "anonymous": false,
      "inputs": [
        {
          "indexed": true,
          "name": "_from",
          "type": "address"
        },
        {
          "indexed": true,
          "name": "_to",
          "type": "address"
        },
        {
          "indexed": false,
          "name": "_value",
          "type": "uint256"
        }
      ],
      "name": "Donate",
      "type": "event"
    },
    {
      "anonymous": false,
      "inputs": [
        {
          "indexed": true,
          "name": "_from",
          "type": "address"
        },
        {
          "indexed": true,
          "name": "_to",
          "type": "address"
        },
        {
          "indexed": false,
          "name": "_value",
          "type": "uint256"
        }
      ],
      "name": "Transfer",
      "type": "event"
    },
    {
      "anonymous": false,
      "inputs": [
        {
          "indexed": true,
          "name": "_owner",
          "type": "address"
        },
        {
          "indexed": true,
          "name": "_spender",
          "type": "address"
        },
        {
          "indexed": false,
          "name": "_value",
          "type": "uint256"
        }
      ],
      "name": "Approval",
      "type": "event"
    },
    {
      "constant": false,
      "inputs": [
        {
          "name": "_newOwner",
          "type": "address"
        }
      ],
      "name": "changeOwner",
      "outputs": [
        {
          "name": "success",
          "type": "bool"
        }
      ],
      "payable": false,
      "stateMutability": "nonpayable",
      "type": "function"
    },
    {
      "constant": false,
      "inputs": [
        {
          "name": "_contractAddress",
          "type": "address"
        }
      ],
      "name": "updateHueyAddress",
      "outputs": [
        {
          "name": "success",
          "type": "bool"
        }
      ],
      "payable": false,
      "stateMutability": "nonpayable",
      "type": "function"
    },
    {
      "constant": true,
      "inputs": [],
      "name": "totalSupply",
      "outputs": [
        {
          "name": "totalSup",
          "type": "uint256"
        }
      ],
      "payable": false,
      "stateMutability": "view",
      "type": "function"
    },
    {
      "constant": true,
      "inputs": [
        {
          "name": "_owner",
          "type": "address"
        }
      ],
      "name": "balanceOf",
      "outputs": [
        {
          "name": "balance",
          "type": "uint256"
        }
      ],
      "payable": false,
      "stateMutability": "view",
      "type": "function"
    },
    {
      "constant": false,
      "inputs": [
        {
          "name": "_to",
          "type": "address"
        },
        {
          "name": "_amount",
          "type": "uint256"
        }
      ],
      "name": "transfer",
      "outputs": [
        {
          "name": "success",
          "type": "bool"
        }
      ],
      "payable": false,
      "stateMutability": "nonpayable",
      "type": "function"
    },
    {
      "constant": false,
      "inputs": [
        {
          "name": "_to",
          "type": "address"
        },
        {
          "name": "_amount",
          "type": "uint256"
        }
      ],
      "name": "donate",
      "outputs": [
        {
          "name": "success",
          "type": "bool"
        }
      ],
      "payable": false,
      "stateMutability": "nonpayable",
      "type": "function"
    },
    {
      "constant": false,
      "inputs": [
        {
          "name": "_from",
          "type": "address"
        },
        {
          "name": "_to",
          "type": "address"
        },
        {
          "name": "_amount",
          "type": "uint256"
        }
      ],
      "name": "transferFrom",
      "outputs": [
        {
          "name": "success",
          "type": "bool"
        }
      ],
      "payable": false,
      "stateMutability": "nonpayable",
      "type": "function"
    },
    {
      "constant": false,
      "inputs": [
        {
          "name": "_spender",
          "type": "address"
        },
        {
          "name": "_amount",
          "type": "uint256"
        }
      ],
      "name": "approve",
      "outputs": [
        {
          "name": "success",
          "type": "bool"
        }
      ],
      "payable": false,
      "stateMutability": "nonpayable",
      "type": "function"
    },
    {
      "constant": true,
      "inputs": [
        {
          "name": "_owner",
          "type": "address"
        },
        {
          "name": "_spender",
          "type": "address"
        }
      ],
      "name": "allowance",
      "outputs": [
        {
          "name": "remaining",
          "type": "uint256"
        }
      ],
      "payable": false,
      "stateMutability": "view",
      "type": "function"
    }
  ],
  "bytecode": "0x6060604052601260ff16600a0a6303473bc002600055341561002057600080fd5b33600160006101000a81548173ffffffffffffffffffffffffffffffffffffffff021916908373ffffffffffffffffffffffffffffffffffffffff16021790555060005460036000600160009054906101000a900473ffffffffffffffffffffffffffffffffffffffff1673ffffffffffffffffffffffffffffffffffffffff1673ffffffffffffffffffffffffffffffffffffffff168152602001908152602001600020819055506112d3806100d86000396000f3006060604052600436106100e6576000357c0100000000000000000000000000000000000000000000000000000000900463ffffffff16806306fdde03146100eb578063095ea7b31461017957806318160ddd146101d357806323b872dd146101fc57806327e235e314610275578063313ce567146102c25780635c658165146102f157806370a082311461035d5780638c192eae146103aa5780638da5cb5b146103ff57806395d89b4114610454578063a6f9dae1146104e2578063a9059cbb14610533578063dd62ed3e1461058d578063e2335509146105f9578063e69d849d1461064a575b600080fd5b34156100f657600080fd5b6100fe6106a4565b6040518080602001828103825283818151815260200191508051906020019080838360005b8381101561013e578082015181840152602081019050610123565b50505050905090810190601f16801561016b5780820380516001836020036101000a031916815260200191505b509250505060405180910390f35b341561018457600080fd5b6101b9600480803573ffffffffffffffffffffffffffffffffffffffff169060200190919080359060200190919050506106dd565b604051808215151515815260200191505060405180910390f35b34156101de57600080fd5b6101e66107cf565b6040518082815260200191505060405180910390f35b341561020757600080fd5b61025b600480803573ffffffffffffffffffffffffffffffffffffffff1690602001909190803573ffffffffffffffffffffffffffffffffffffffff169060200190919080359060200190919050506107d8565b604051808215151515815260200191505060405180910390f35b341561028057600080fd5b6102ac600480803573ffffffffffffffffffffffffffffffffffffffff16906020019091905050610adf565b6040518082815260200191505060405180910390f35b34156102cd57600080fd5b6102d5610af7565b604051808260ff1660ff16815260200191505060405180910390f35b34156102fc57600080fd5b610347600480803573ffffffffffffffffffffffffffffffffffffffff1690602001909190803573ffffffffffffffffffffffffffffffffffffffff16906020019091905050610afc565b6040518082815260200191505060405180910390f35b341561036857600080fd5b610394600480803573ffffffffffffffffffffffffffffffffffffffff16906020019091905050610b21565b6040518082815260200191505060405180910390f35b34156103b557600080fd5b6103bd610b6a565b604051808273ffffffffffffffffffffffffffffffffffffffff1673ffffffffffffffffffffffffffffffffffffffff16815260200191505060405180910390f35b341561040a57600080fd5b610412610b90565b604051808273ffffffffffffffffffffffffffffffffffffffff1673ffffffffffffffffffffffffffffffffffffffff16815260200191505060405180910390f35b341561045f57600080fd5b610467610bb6565b6040518080602001828103825283818151815260200191508051906020019080838360005b838110156104a757808201518184015260208101905061048c565b50505050905090810190601f1680156104d45780820380516001836020036101000a031916815260200191505b509250505060405180910390f35b34156104ed57600080fd5b610519600480803573ffffffffffffffffffffffffffffffffffffffff16906020019091905050610bef565b604051808215151515815260200191505060405180910390f35b341561053e57600080fd5b610573600480803573ffffffffffffffffffffffffffffffffffffffff16906020019091908035906020019091905050610c97565b604051808215151515815260200191505060405180910390f35b341561059857600080fd5b6105e3600480803573ffffffffffffffffffffffffffffffffffffffff1690602001909190803573ffffffffffffffffffffffffffffffffffffffff16906020019091905050610e8b565b6040518082815260200191505060405180910390f35b341561060457600080fd5b610630600480803573ffffffffffffffffffffffffffffffffffffffff16906020019091905050610f12565b604051808215151515815260200191505060405180910390f35b341561065557600080fd5b61068a600480803573ffffffffffffffffffffffffffffffffffffffff16906020019091908035906020019091905050610fba565b604051808215151515815260200191505060405180910390f35b6040805190810160405280600481526020017f487565790000000000000000000000000000000000000000000000000000000081525081565b600081600460003373ffffffffffffffffffffffffffffffffffffffff1673ffffffffffffffffffffffffffffffffffffffff16815260200190815260200160002060008573ffffffffffffffffffffffffffffffffffffffff1673ffffffffffffffffffffffffffffffffffffffff168152602001908152602001600020819055508273ffffffffffffffffffffffffffffffffffffffff163373ffffffffffffffffffffffffffffffffffffffff167f8c5be1e5ebec7d5bd14f71427d1e84f3dd0314c0f7b2291e5b200ac8c7c3b925846040518082815260200191505060405180910390a36001905092915050565b60008054905090565b600081600360008673ffffffffffffffffffffffffffffffffffffffff1673ffffffffffffffffffffffffffffffffffffffff16815260200190815260200160002054101580156108a5575081600460008673ffffffffffffffffffffffffffffffffffffffff1673ffffffffffffffffffffffffffffffffffffffff16815260200190815260200160002060003373ffffffffffffffffffffffffffffffffffffffff1673ffffffffffffffffffffffffffffffffffffffff1681526020019081526020016000205410155b80156108b15750600082115b801561093c5750600360008473ffffffffffffffffffffffffffffffffffffffff1673ffffffffffffffffffffffffffffffffffffffff1681526020019081526020016000205482600360008673ffffffffffffffffffffffffffffffffffffffff1673ffffffffffffffffffffffffffffffffffffffff1681526020019081526020016000205401115b15610ad35781600360008673ffffffffffffffffffffffffffffffffffffffff1673ffffffffffffffffffffffffffffffffffffffff1681526020019081526020016000206000828254039250508190555081600460008673ffffffffffffffffffffffffffffffffffffffff1673ffffffffffffffffffffffffffffffffffffffff16815260200190815260200160002060003373ffffffffffffffffffffffffffffffffffffffff1673ffffffffffffffffffffffffffffffffffffffff1681526020019081526020016000206000828254039250508190555081600360008573ffffffffffffffffffffffffffffffffffffffff1673ffffffffffffffffffffffffffffffffffffffff168152602001908152602001600020600082825401925050819055508273ffffffffffffffffffffffffffffffffffffffff168473ffffffffffffffffffffffffffffffffffffffff167fddf252ad1be2c89b69c2b068fc378daa952ba7f163c4a11628f55a4df523b3ef846040518082815260200191505060405180910390a360019050610ad8565b600090505b9392505050565b60036020528060005260406000206000915090505481565b601281565b6004602052816000526040600020602052806000526040600020600091509150505481565b6000600360008373ffffffffffffffffffffffffffffffffffffffff1673ffffffffffffffffffffffffffffffffffffffff168152602001908152602001600020549050919050565b600260009054906101000a900473ffffffffffffffffffffffffffffffffffffffff1681565b600160009054906101000a900473ffffffffffffffffffffffffffffffffffffffff1681565b6040805190810160405280600481526020017f485545590000000000000000000000000000000000000000000000000000000081525081565b6000600160009054906101000a900473ffffffffffffffffffffffffffffffffffffffff1673ffffffffffffffffffffffffffffffffffffffff163373ffffffffffffffffffffffffffffffffffffffff16141515610c4d57600080fd5b81600160006101000a81548173ffffffffffffffffffffffffffffffffffffffff021916908373ffffffffffffffffffffffffffffffffffffffff16021790555060019050919050565b600081600360003373ffffffffffffffffffffffffffffffffffffffff1673ffffffffffffffffffffffffffffffffffffffff1681526020019081526020016000205410158015610ce85750600082115b8015610d735750600360008473ffffffffffffffffffffffffffffffffffffffff1673ffffffffffffffffffffffffffffffffffffffff1681526020019081526020016000205482600360008673ffffffffffffffffffffffffffffffffffffffff1673ffffffffffffffffffffffffffffffffffffffff1681526020019081526020016000205401115b15610e805781600360003373ffffffffffffffffffffffffffffffffffffffff1673ffffffffffffffffffffffffffffffffffffffff1681526020019081526020016000206000828254039250508190555081600360008573ffffffffffffffffffffffffffffffffffffffff1673ffffffffffffffffffffffffffffffffffffffff168152602001908152602001600020600082825401925050819055508273ffffffffffffffffffffffffffffffffffffffff163373ffffffffffffffffffffffffffffffffffffffff167fddf252ad1be2c89b69c2b068fc378daa952ba7f163c4a11628f55a4df523b3ef846040518082815260200191505060405180910390a360019050610e85565b600090505b92915050565b6000600460008473ffffffffffffffffffffffffffffffffffffffff1673ffffffffffffffffffffffffffffffffffffffff16815260200190815260200160002060008373ffffffffffffffffffffffffffffffffffffffff1673ffffffffffffffffffffffffffffffffffffffff16815260200190815260200160002054905092915050565b6000600160009054906101000a900473ffffffffffffffffffffffffffffffffffffffff1673ffffffffffffffffffffffffffffffffffffffff163373ffffffffffffffffffffffffffffffffffffffff16141515610f7057600080fd5b81600260006101000a81548173ffffffffffffffffffffffffffffffffffffffff021916908373ffffffffffffffffffffffffffffffffffffffff16021790555060019050919050565b6000600260009054906101000a900473ffffffffffffffffffffffffffffffffffffffff1673ffffffffffffffffffffffffffffffffffffffff163373ffffffffffffffffffffffffffffffffffffffff1614151561101857600080fd5b81600360003273ffffffffffffffffffffffffffffffffffffffff1673ffffffffffffffffffffffffffffffffffffffff16815260200190815260200160002054101580156110675750600082115b80156110f25750600360008473ffffffffffffffffffffffffffffffffffffffff1673ffffffffffffffffffffffffffffffffffffffff1681526020019081526020016000205482600360008673ffffffffffffffffffffffffffffffffffffffff1673ffffffffffffffffffffffffffffffffffffffff1681526020019081526020016000205401115b801561112a57508273ffffffffffffffffffffffffffffffffffffffff163273ffffffffffffffffffffffffffffffffffffffff1614155b1561129c5781600360003273ffffffffffffffffffffffffffffffffffffffff1673ffffffffffffffffffffffffffffffffffffffff1681526020019081526020016000206000828254039250508190555081600360008573ffffffffffffffffffffffffffffffffffffffff1673ffffffffffffffffffffffffffffffffffffffff168152602001908152602001600020600082825401925050819055508273ffffffffffffffffffffffffffffffffffffffff163273ffffffffffffffffffffffffffffffffffffffff167fddf252ad1be2c89b69c2b068fc378daa952ba7f163c4a11628f55a4df523b3ef846040518082815260200191505060405180910390a38273ffffffffffffffffffffffffffffffffffffffff163273ffffffffffffffffffffffffffffffffffffffff167f88dcaca629d63d86330e97adc358b13dd0ebd703239aea96b7ea2fb331b16f4e846040518082815260200191505060405180910390a3600190506112a1565b600090505b929150505600a165627a7a7230582060548d3fe1c0d643d476725848ac75c23ec0235c9dc87982da3d6874cd94d4330029",
  "source": "pragma solidity ^0.4.11;\n\ncontract ERC20Interface {\n\n    function totalSupply() constant public returns (uint256 totalSup);\n    function balanceOf(address _owner) constant public returns (uint256 balance);\n    function transfer(address _to, uint256 _value) public returns (bool success);\n    function transferFrom(address _from, address _to, uint256 _value) public returns (bool success);\n    function approve(address _spender, uint256 _value) public returns (bool success);\n    function allowance(address _owner, address _spender) public constant returns (uint256 remaining);\n    event Transfer(address indexed _from, address indexed _to, uint256 _value);\n    event Approval(address indexed _owner, address indexed _spender, uint256 _value);\n\n}\n\ncontract Huey is ERC20Interface {\n\n    string public constant symbol = \"HUEY\";\n\n    string public constant name = \"Huey\";\n\n    uint8 public constant decimals = 18;\n\n    uint256 _totalSupply = 55000000 * 10**uint256(decimals);\n\n    address public owner;\n\n    address public hueyContract;\n\n    mapping(address => uint256) public balances;\n\n    mapping(address => mapping (address => uint256)) public allowed;\n\n    modifier onlyOwner() {\n        if (msg.sender != owner) {\n            revert();\n        }\n        _;\n    }\n\n    modifier onlyHueyContract() {\n        if (msg.sender != hueyContract) {\n            revert();\n        }\n        _;\n    }\n\n    // Constructor\n    function Huey() public {\n        owner = msg.sender;\n        balances[owner] = _totalSupply;\n    }\n\n    function changeOwner(address _newOwner) onlyOwner() public returns (bool success) {\n        owner = _newOwner;\n        return true;\n    }\n\n    function updateHueyAddress(address _contractAddress) onlyOwner() public returns (bool success) {\n        hueyContract = _contractAddress;\n        return true;\n    }\n \n    function totalSupply() constant public returns (uint256 totalSup) {\n        totalSup = _totalSupply;\n    }\n\n    function balanceOf(address _owner) constant public returns (uint256 balance) {\n        return balances[_owner];\n    }\n\n    function transfer(address _to, uint256 _amount) public returns (bool success) {\n        if (balances[msg.sender] >= _amount && _amount > 0 && balances[_to] + _amount > balances[_to]) {\n            balances[msg.sender] -= _amount;\n            balances[_to] += _amount;\n            emit Transfer(msg.sender, _to, _amount);\n            return true;\n        } else {\n            return false;\n        }\n    }\n\n    function donate(address _to, uint256 _amount) onlyHueyContract() public returns (bool success) {\n        if (balances[tx.origin] >= _amount && _amount > 0 && balances[_to] + _amount > balances[_to] && tx.origin != _to) {\n            balances[tx.origin] -= _amount;\n            balances[_to] += _amount;\n            emit Transfer(tx.origin, _to, _amount);\n            emit Donate(tx.origin, _to, _amount);\n            return true;\n        } else {\n            return false;\n        }\n    }\n\n    function transferFrom(address _from, address _to, uint256 _amount) public returns (bool success) {\n        if (balances[_from] >= _amount && allowed[_from][msg.sender] >= _amount && _amount > 0 && balances[_to] + _amount > balances[_to]) {\n            balances[_from] -= _amount;\n            allowed[_from][msg.sender] -= _amount;\n            balances[_to] += _amount;\n            emit Transfer(_from, _to, _amount);\n            return true;\n        } else {\n            return false;\n        }\n    }\n\n    function approve(address _spender, uint256 _amount) public returns (bool success) {\n        allowed[msg.sender][_spender] = _amount;\n        emit Approval(msg.sender, _spender, _amount);\n        return true;\n    }\n\n    function allowance(address _owner, address _spender) constant public returns (uint256 remaining) {\n        return allowed[_owner][_spender];\n    }\n\n    event Donate(address indexed _from, address indexed _to, uint256 _value);\n\n}\n",
  "sourcePath": "/home/heish/Documents/Repos/HueyHex/contracts/contracts/HueyToken.sol",
  "compiler": {
    "name": "solc",
    "version": "0.4.21+commit.dfe3193c.Emscripten.clang"
  },
  "schemaVersion": "2.0.0",
  "updatedAt": "2018-04-30T02:44:32.352Z"
}