{
  "contractName": "Subscriptions",
  "abi": [
    {
      "constant": true,
      "inputs": [
        {
          "name": "channel",
          "type": "address"
        }
      ],
      "name": "returnDonationCount",
      "outputs": [
        {
          "name": "donationCount",
          "type": "uint256"
        }
      ],
      "payable": false,
      "stateMutability": "view",
      "type": "function"
    },
    {
      "constant": true,
      "inputs": [
        {
          "name": "",
          "type": "address"
        },
        {
          "name": "",
          "type": "uint256"
        }
      ],
      "name": "subs",
      "outputs": [
        {
          "name": "",
          "type": "address"
        }
      ],
      "payable": false,
      "stateMutability": "view",
      "type": "function"
    },
    {
      "constant": false,
      "inputs": [],
      "name": "unregisterChannel",
      "outputs": [
        {
          "name": "success",
          "type": "bool"
        }
      ],
      "payable": false,
      "stateMutability": "nonpayable",
      "type": "function"
    },
    {
      "constant": false,
      "inputs": [],
      "name": "registerChannelFromContract",
      "outputs": [
        {
          "name": "success",
          "type": "bool"
        }
      ],
      "payable": false,
      "stateMutability": "nonpayable",
      "type": "function"
    },
    {
      "constant": true,
      "inputs": [],
      "name": "returnChannels",
      "outputs": [
        {
          "name": "_subs",
          "type": "address[]"
        }
      ],
      "payable": false,
      "stateMutability": "view",
      "type": "function"
    },
    {
      "constant": false,
      "inputs": [
        {
          "name": "addr",
          "type": "address"
        }
      ],
      "name": "subscribeToChannel",
      "outputs": [
        {
          "name": "success",
          "type": "bool"
        }
      ],
      "payable": false,
      "stateMutability": "nonpayable",
      "type": "function"
    },
    {
      "constant": true,
      "inputs": [
        {
          "name": "channel",
          "type": "address"
        }
      ],
      "name": "returnTotalDonations",
      "outputs": [
        {
          "name": "totalDonations",
          "type": "uint256"
        }
      ],
      "payable": false,
      "stateMutability": "view",
      "type": "function"
    },
    {
      "constant": false,
      "inputs": [
        {
          "name": "_channel",
          "type": "address"
        },
        {
          "name": "_amount",
          "type": "uint256"
        }
      ],
      "name": "donateTo",
      "outputs": [
        {
          "name": "success",
          "type": "bool"
        }
      ],
      "payable": false,
      "stateMutability": "nonpayable",
      "type": "function"
    },
    {
      "constant": true,
      "inputs": [],
      "name": "returnChannelCount",
      "outputs": [
        {
          "name": "channelCount",
          "type": "uint256"
        }
      ],
      "payable": false,
      "stateMutability": "view",
      "type": "function"
    },
    {
      "constant": true,
      "inputs": [
        {
          "name": "addr",
          "type": "address"
        }
      ],
      "name": "totalSubscribers",
      "outputs": [
        {
          "name": "total",
          "type": "uint256"
        }
      ],
      "payable": false,
      "stateMutability": "view",
      "type": "function"
    },
    {
      "constant": true,
      "inputs": [
        {
          "name": "addr",
          "type": "address"
        }
      ],
      "name": "channelExist",
      "outputs": [
        {
          "name": "exist",
          "type": "bool"
        }
      ],
      "payable": false,
      "stateMutability": "view",
      "type": "function"
    },
    {
      "constant": true,
      "inputs": [
        {
          "name": "",
          "type": "address"
        }
      ],
      "name": "channels",
      "outputs": [
        {
          "name": "contractAddress",
          "type": "address"
        },
        {
          "name": "subCount",
          "type": "uint256"
        },
        {
          "name": "totalDonations",
          "type": "uint256"
        },
        {
          "name": "donationCount",
          "type": "uint256"
        }
      ],
      "payable": false,
      "stateMutability": "view",
      "type": "function"
    },
    {
      "constant": false,
      "inputs": [
        {
          "name": "channelAdd",
          "type": "address"
        }
      ],
      "name": "registerChannelManually",
      "outputs": [
        {
          "name": "success",
          "type": "bool"
        }
      ],
      "payable": false,
      "stateMutability": "nonpayable",
      "type": "function"
    },
    {
      "constant": true,
      "inputs": [],
      "name": "owner",
      "outputs": [
        {
          "name": "",
          "type": "address"
        }
      ],
      "payable": false,
      "stateMutability": "view",
      "type": "function"
    },
    {
      "constant": true,
      "inputs": [
        {
          "name": "",
          "type": "uint256"
        }
      ],
      "name": "allChannels",
      "outputs": [
        {
          "name": "",
          "type": "address"
        }
      ],
      "payable": false,
      "stateMutability": "view",
      "type": "function"
    },
    {
      "constant": false,
      "inputs": [
        {
          "name": "_newOwner",
          "type": "address"
        }
      ],
      "name": "changeOwner",
      "outputs": [
        {
          "name": "success",
          "type": "bool"
        }
      ],
      "payable": false,
      "stateMutability": "nonpayable",
      "type": "function"
    },
    {
      "constant": true,
      "inputs": [
        {
          "name": "channel",
          "type": "address"
        }
      ],
      "name": "returnContractAddress",
      "outputs": [
        {
          "name": "conAddr",
          "type": "address"
        }
      ],
      "payable": false,
      "stateMutability": "view",
      "type": "function"
    },
    {
      "constant": false,
      "inputs": [
        {
          "name": "_newTokenAddress",
          "type": "address"
        }
      ],
      "name": "changeTokenAddress",
      "outputs": [
        {
          "name": "success",
          "type": "bool"
        }
      ],
      "payable": false,
      "stateMutability": "nonpayable",
      "type": "function"
    },
    {
      "constant": true,
      "inputs": [],
      "name": "hueyTokenAddress",
      "outputs": [
        {
          "name": "",
          "type": "address"
        }
      ],
      "payable": false,
      "stateMutability": "view",
      "type": "function"
    },
    {
      "constant": true,
      "inputs": [],
      "name": "TotalChannels",
      "outputs": [
        {
          "name": "",
          "type": "uint256"
        }
      ],
      "payable": false,
      "stateMutability": "view",
      "type": "function"
    },
    {
      "constant": true,
      "inputs": [
        {
          "name": "channel",
          "type": "address"
        }
      ],
      "name": "returnSubCount",
      "outputs": [
        {
          "name": "subCount",
          "type": "uint256"
        }
      ],
      "payable": false,
      "stateMutability": "view",
      "type": "function"
    },
    {
      "inputs": [],
      "payable": false,
      "stateMutability": "nonpayable",
      "type": "constructor"
    }
  ],
  "bytecode": "0x6060604052341561000f57600080fd5b336000806101000a81548173ffffffffffffffffffffffffffffffffffffffff021916908373ffffffffffffffffffffffffffffffffffffffff1602179055506000600281905550611772806100666000396000f30060606040526004361061011d576000357c0100000000000000000000000000000000000000000000000000000000900463ffffffff1680630478c0db146101225780630588dfe61461016f5780630e019d50146101f15780631acb2dca1461021e57806320e587aa1461024b5780632e625067146102b55780634852b67c14610306578063532f96cd14610353578063625ed217146103ad57806377ac2038146103d65780637801a3fd146104235780637dce34f7146104745780637def3c63146105025780638da5cb5b14610553578063a5cb73bf146105a8578063a6f9dae11461060b578063b14f23f11461065c578063c9cda91f146106d5578063d075874014610726578063e253dd661461077b578063ef392bc1146107a4575b600080fd5b341561012d57600080fd5b610159600480803573ffffffffffffffffffffffffffffffffffffffff169060200190919050506107f1565b6040518082815260200191505060405180910390f35b341561017a57600080fd5b6101af600480803573ffffffffffffffffffffffffffffffffffffffff1690602001909190803590602001909190505061083d565b604051808273ffffffffffffffffffffffffffffffffffffffff1673ffffffffffffffffffffffffffffffffffffffff16815260200191505060405180910390f35b34156101fc57600080fd5b61020461088b565b604051808215151515815260200191505060405180910390f35b341561022957600080fd5b610231610915565b604051808215151515815260200191505060405180910390f35b341561025657600080fd5b61025e610b05565b6040518080602001828103825283818151815260200191508051906020019060200280838360005b838110156102a1578082015181840152602081019050610286565b505050509050019250505060405180910390f35b34156102c057600080fd5b6102ec600480803573ffffffffffffffffffffffffffffffffffffffff16906020019091905050610bd6565b604051808215151515815260200191505060405180910390f35b341561031157600080fd5b61033d600480803573ffffffffffffffffffffffffffffffffffffffff16906020019091905050610d34565b6040518082815260200191505060405180910390f35b341561035e57600080fd5b610393600480803573ffffffffffffffffffffffffffffffffffffffff16906020019091908035906020019091905050610d80565b604051808215151515815260200191505060405180910390f35b34156103b857600080fd5b6103c0610fc5565b6040518082815260200191505060405180910390f35b34156103e157600080fd5b61040d600480803573ffffffffffffffffffffffffffffffffffffffff16906020019091905050610fcf565b6040518082815260200191505060405180910390f35b341561042e57600080fd5b61045a600480803573ffffffffffffffffffffffffffffffffffffffff1690602001909190505061101b565b604051808215151515815260200191505060405180910390f35b341561047f57600080fd5b6104ab600480803573ffffffffffffffffffffffffffffffffffffffff169060200190919050506110c2565b604051808573ffffffffffffffffffffffffffffffffffffffff1673ffffffffffffffffffffffffffffffffffffffff16815260200184815260200183815260200182815260200194505050505060405180910390f35b341561050d57600080fd5b610539600480803573ffffffffffffffffffffffffffffffffffffffff16906020019091905050611112565b604051808215151515815260200191505060405180910390f35b341561055e57600080fd5b61056661133e565b604051808273ffffffffffffffffffffffffffffffffffffffff1673ffffffffffffffffffffffffffffffffffffffff16815260200191505060405180910390f35b34156105b357600080fd5b6105c96004808035906020019091905050611363565b604051808273ffffffffffffffffffffffffffffffffffffffff1673ffffffffffffffffffffffffffffffffffffffff16815260200191505060405180910390f35b341561061657600080fd5b610642600480803573ffffffffffffffffffffffffffffffffffffffff16906020019091905050611396565b604051808215151515815260200191505060405180910390f35b341561066757600080fd5b610693600480803573ffffffffffffffffffffffffffffffffffffffff1690602001909190505061143c565b604051808273ffffffffffffffffffffffffffffffffffffffff1673ffffffffffffffffffffffffffffffffffffffff16815260200191505060405180910390f35b34156106e057600080fd5b61070c600480803573ffffffffffffffffffffffffffffffffffffffff169060200190919050506114a8565b604051808215151515815260200191505060405180910390f35b341561073157600080fd5b61073961154f565b604051808273ffffffffffffffffffffffffffffffffffffffff1673ffffffffffffffffffffffffffffffffffffffff16815260200191505060405180910390f35b341561078657600080fd5b61078e611575565b6040518082815260200191505060405180910390f35b34156107af57600080fd5b6107db600480803573ffffffffffffffffffffffffffffffffffffffff1690602001909190505061157b565b6040518082815260200191505060405180910390f35b6000600360008373ffffffffffffffffffffffffffffffffffffffff1673ffffffffffffffffffffffffffffffffffffffff168152602001908152602001600020600301549050919050565b60046020528160005260406000208181548110151561085857fe5b90600052602060002090016000915091509054906101000a900473ffffffffffffffffffffffffffffffffffffffff1681565b600080600360003373ffffffffffffffffffffffffffffffffffffffff1673ffffffffffffffffffffffffffffffffffffffff16815260200190815260200160002060000160006101000a81548173ffffffffffffffffffffffffffffffffffffffff021916908373ffffffffffffffffffffffffffffffffffffffff1602179055506001905090565b6000809050600073ffffffffffffffffffffffffffffffffffffffff16600360003273ffffffffffffffffffffffffffffffffffffffff1673ffffffffffffffffffffffffffffffffffffffff16815260200190815260200160002060000160009054906101000a900473ffffffffffffffffffffffffffffffffffffffff1673ffffffffffffffffffffffffffffffffffffffff161415156109b757600080fd5b6080604051908101604052803373ffffffffffffffffffffffffffffffffffffffff16815260200160008152602001600081526020016000815250600360003273ffffffffffffffffffffffffffffffffffffffff1673ffffffffffffffffffffffffffffffffffffffff16815260200190815260200160002060008201518160000160006101000a81548173ffffffffffffffffffffffffffffffffffffffff021916908373ffffffffffffffffffffffffffffffffffffffff1602179055506020820151816001015560408201518160020155606082015181600301559050503360056000600254815260200190815260200160002060006101000a81548173ffffffffffffffffffffffffffffffffffffffff021916908373ffffffffffffffffffffffffffffffffffffffff16021790555060016002600082825401925050819055506001905090565b610b0d6116e1565b600460003373ffffffffffffffffffffffffffffffffffffffff1673ffffffffffffffffffffffffffffffffffffffff168152602001908152602001600020805480602002602001604051908101604052809291908181526020018280548015610bcc57602002820191906000526020600020905b8160009054906101000a900473ffffffffffffffffffffffffffffffffffffffff1673ffffffffffffffffffffffffffffffffffffffff1681526020019060010190808311610b82575b5050505050905090565b6000809050610be48261101b565b1515610bef57600080fd5b610bf933836115c7565b15610c0357600080fd5b600460003373ffffffffffffffffffffffffffffffffffffffff1673ffffffffffffffffffffffffffffffffffffffff1681526020019081526020016000208054806001018281610c5491906116f5565b9160005260206000209001600084909190916101000a81548173ffffffffffffffffffffffffffffffffffffffff021916908373ffffffffffffffffffffffffffffffffffffffff160217905550506001600360008473ffffffffffffffffffffffffffffffffffffffff1673ffffffffffffffffffffffffffffffffffffffff1681526020019081526020016000206001015401600360008473ffffffffffffffffffffffffffffffffffffffff1673ffffffffffffffffffffffffffffffffffffffff16815260200190815260200160002060010181905550919050565b6000600360008373ffffffffffffffffffffffffffffffffffffffff1673ffffffffffffffffffffffffffffffffffffffff168152602001908152602001600020600201549050919050565b6000806000809250610d918561101b565b1515610d9c57600080fd5b600084111515610dab57600080fd5b600160009054906101000a900473ffffffffffffffffffffffffffffffffffffffff1691508173ffffffffffffffffffffffffffffffffffffffff1663e69d849d86866000604051602001526040518363ffffffff167c0100000000000000000000000000000000000000000000000000000000028152600401808373ffffffffffffffffffffffffffffffffffffffff1673ffffffffffffffffffffffffffffffffffffffff16815260200182815260200192505050602060405180830381600087803b1515610e7b57600080fd5b6102c65a03f11515610e8c57600080fd5b5050506040518051905090508015610fba5783600360008773ffffffffffffffffffffffffffffffffffffffff1673ffffffffffffffffffffffffffffffffffffffff1681526020019081526020016000206002015401600360008773ffffffffffffffffffffffffffffffffffffffff1673ffffffffffffffffffffffffffffffffffffffff168152602001908152602001600020600201819055506001600360008773ffffffffffffffffffffffffffffffffffffffff1673ffffffffffffffffffffffffffffffffffffffff1681526020019081526020016000206003015401600360008773ffffffffffffffffffffffffffffffffffffffff1673ffffffffffffffffffffffffffffffffffffffff16815260200190815260200160002060030181905550600192505b829250505092915050565b6000600254905090565b6000600360008373ffffffffffffffffffffffffffffffffffffffff1673ffffffffffffffffffffffffffffffffffffffff168152602001908152602001600020600101549050919050565b6000809050600073ffffffffffffffffffffffffffffffffffffffff16600360008473ffffffffffffffffffffffffffffffffffffffff1673ffffffffffffffffffffffffffffffffffffffff16815260200190815260200160002060000160009054906101000a900473ffffffffffffffffffffffffffffffffffffffff1673ffffffffffffffffffffffffffffffffffffffff161415156110bd57600190505b919050565b60036020528060005260406000206000915090508060000160009054906101000a900473ffffffffffffffffffffffffffffffffffffffff16908060010154908060020154908060030154905084565b6000809050600073ffffffffffffffffffffffffffffffffffffffff168273ffffffffffffffffffffffffffffffffffffffff16141561115157600080fd5b600073ffffffffffffffffffffffffffffffffffffffff16600360003373ffffffffffffffffffffffffffffffffffffffff1673ffffffffffffffffffffffffffffffffffffffff16815260200190815260200160002060000160009054906101000a900473ffffffffffffffffffffffffffffffffffffffff1673ffffffffffffffffffffffffffffffffffffffff161415156111ee57600080fd5b6080604051908101604052808373ffffffffffffffffffffffffffffffffffffffff16815260200160008152602001600081526020016000815250600360003373ffffffffffffffffffffffffffffffffffffffff1673ffffffffffffffffffffffffffffffffffffffff16815260200190815260200160002060008201518160000160006101000a81548173ffffffffffffffffffffffffffffffffffffffff021916908373ffffffffffffffffffffffffffffffffffffffff1602179055506020820151816001015560408201518160020155606082015181600301559050503360056000600254815260200190815260200160002060006101000a81548173ffffffffffffffffffffffffffffffffffffffff021916908373ffffffffffffffffffffffffffffffffffffffff160217905550600160026000828254019250508190555060019050919050565b6000809054906101000a900473ffffffffffffffffffffffffffffffffffffffff1681565b60056020528060005260406000206000915054906101000a900473ffffffffffffffffffffffffffffffffffffffff1681565b60008060009054906101000a900473ffffffffffffffffffffffffffffffffffffffff1673ffffffffffffffffffffffffffffffffffffffff163373ffffffffffffffffffffffffffffffffffffffff161415156113f357600080fd5b816000806101000a81548173ffffffffffffffffffffffffffffffffffffffff021916908373ffffffffffffffffffffffffffffffffffffffff16021790555060019050919050565b6000600360008373ffffffffffffffffffffffffffffffffffffffff1673ffffffffffffffffffffffffffffffffffffffff16815260200190815260200160002060000160009054906101000a900473ffffffffffffffffffffffffffffffffffffffff169050919050565b60008060009054906101000a900473ffffffffffffffffffffffffffffffffffffffff1673ffffffffffffffffffffffffffffffffffffffff163373ffffffffffffffffffffffffffffffffffffffff1614151561150557600080fd5b81600160006101000a81548173ffffffffffffffffffffffffffffffffffffffff021916908373ffffffffffffffffffffffffffffffffffffffff16021790555060019050919050565b600160009054906101000a900473ffffffffffffffffffffffffffffffffffffffff1681565b60025481565b6000600360008373ffffffffffffffffffffffffffffffffffffffff1673ffffffffffffffffffffffffffffffffffffffff168152602001908152602001600020600101549050919050565b60008060009150600090505b600460008573ffffffffffffffffffffffffffffffffffffffff1673ffffffffffffffffffffffffffffffffffffffff168152602001908152602001600020805490508110156116da578273ffffffffffffffffffffffffffffffffffffffff16600460008673ffffffffffffffffffffffffffffffffffffffff1673ffffffffffffffffffffffffffffffffffffffff1681526020019081526020016000208281548110151561168057fe5b906000526020600020900160009054906101000a900473ffffffffffffffffffffffffffffffffffffffff1673ffffffffffffffffffffffffffffffffffffffff1614156116cd57600191505b80806001019150506115d3565b5092915050565b602060405190810160405280600081525090565b81548183558181151161171c5781836000526020600020918201910161171b9190611721565b5b505050565b61174391905b8082111561173f576000816000905550600101611727565b5090565b905600a165627a7a7230582013d7b2227f98688887126c728ff70a509e7aad765d34c6b46e52e2616ebd62660029",
  "source": "pragma solidity ^0.4.11;\n\ncontract ERC20Interface {\n\n    function totalSupply() constant returns (uint256 totalSup);\n    function balanceOf(address _owner) constant returns (uint256 balance);\n    function transfer(address _to, uint256 _value) returns (bool success);\n    function transferFrom(address _from, address _to, uint256 _value) returns (bool success);\n    function approve(address _spender, uint256 _value) returns (bool success);\n    function allowance(address _owner, address _spender) constant returns (uint256 remaining);\n    event Transfer(address indexed _from, address indexed _to, uint256 _value);\n    event Approval(address indexed _owner, address indexed _spender, uint256 _value);\n\n}\n\ncontract HueyToken is ERC20Interface {\n\n    string public constant symbol = \"HUEY\";\n\n    string public constant name = \"HueyHex\";\n\n    uint8 public constant decimals = 18;\n\n    uint256 _totalSupply = 65000000;\n\n    address public owner;\n\n    address public hueyContract;\n\n    mapping(address => uint256) balances;\n\n    mapping(address => mapping (address => uint256)) allowed;\n\n    modifier onlyOwner() {\n        if (msg.sender != owner) {\n            revert();\n        }\n        _;\n    }\n\n    modifier onlyHueyContract() {\n        if (msg.sender != hueyContract) {\n            revert();\n        }\n        _;\n    }\n\n    // Constructor\n    function HueyToken() {\n        owner = msg.sender;\n        balances[owner] = _totalSupply;\n    }\n\n    function changeOwner(address _newOwner) onlyOwner() returns (bool success) {\n        owner = _newOwner;\n        return true;\n    }\n\n    function updateHueyAddress(address _contractAddress) onlyOwner() returns (bool success) {\n        hueyContract = _contractAddress;\n        return true;\n    }\n \n    function totalSupply() constant returns (uint256 totalSup) {\n        totalSup = _totalSupply;\n    }\n\n    function balanceOf(address _owner) constant returns (uint256 balance) {\n        return balances[_owner];\n    }\n\n    function transfer(address _to, uint256 _amount) returns (bool success) {\n        if (balances[msg.sender] >= _amount && _amount > 0 && balances[_to] + _amount > balances[_to]) {\n            balances[msg.sender] -= _amount;\n            balances[_to] += _amount;\n            Transfer(msg.sender, _to, _amount);\n            return true;\n        } else {\n            return false;\n        }\n    }\n\n    function donate(address _to, uint256 _amount) onlyHueyContract() returns (bool success) {\n        if (balances[tx.origin] >= _amount && _amount > 0 && balances[_to] + _amount > balances[_to]) {\n            balances[tx.origin] -= _amount;\n            balances[_to] += _amount;\n            Transfer(tx.origin, _to, _amount);\n            Donate(tx.origin, _to, _amount);\n            return true;\n        } else {\n            return false;\n        }\n    }\n\n    function transferFrom(address _from, address _to, uint256 _amount) returns (bool success) {\n        if (balances[_from] >= _amount && allowed[_from][msg.sender] >= _amount && _amount > 0 && balances[_to] + _amount > balances[_to]) {\n            balances[_from] -= _amount;\n            allowed[_from][msg.sender] -= _amount;\n            balances[_to] += _amount;\n            Transfer(_from, _to, _amount);\n            return true;\n        } else {\n            return false;\n        }\n    }\n\n    function approve(address _spender, uint256 _amount) returns (bool success) {\n        allowed[msg.sender][_spender] = _amount;\n        Approval(msg.sender, _spender, _amount);\n        return true;\n    }\n\n    function allowance(address _owner, address _spender) constant returns (uint256 remaining) {\n        return allowed[_owner][_spender];\n    }\n\n    event Donate(address indexed _from, address indexed _to, uint256 _value);\n\n}\n\ncontract Subscriptions {\n    \n    address public owner;\n\n    address public hueyTokenAddress;\n\n    uint256 public TotalChannels;\n\n    modifier onlyOwner() {\n        require(msg.sender == owner);\n        _;\n    }\n\n    struct Channel {\n        address contractAddress;\n        uint256 subCount;\n        uint256 totalDonations;\n        uint256 donationCount;\n    }\n    \n    //mapping of address to their channel\n    mapping (address => Channel) public channels;\n    //mapping of address to their subs\n    mapping (address => address[]) public subs;\n\n    mapping (uint256 => address) public allChannels;\n    //mapping (address => uint256) public subscriberCount;\n\n    //initalize contract\n    function Subscriptions() {  \n        owner = msg.sender;\n        TotalChannels = 0;\n    }\n\n    function changeOwner(address _newOwner) onlyOwner() returns (bool success) {\n        owner = _newOwner;\n        return true;\n    }\n\n    function changeTokenAddress(address _newTokenAddress) onlyOwner() returns (bool success) {\n        hueyTokenAddress = _newTokenAddress;\n        return true;\n    }\n\n    function registerChannelFromContract() returns (bool success) {\n        success = false;\n        if (channels[tx.origin].contractAddress != address(0x0)) {\n            revert();\n        }\n        channels[tx.origin] = Channel({\n            contractAddress:msg.sender,\n            subCount:0,\n            totalDonations:0,\n            donationCount:0\n        });\n        allChannels[TotalChannels] = msg.sender;\n        TotalChannels += 1;\n        success = true;\n    }\n    \n    function registerChannelManually(address channelAdd) returns (bool success) {\n        success = false;\n        if (channelAdd == address(0x0)) {\n            revert();\n        }\n        if (channels[msg.sender].contractAddress != address(0x0)) {\n            revert();\n        }\n        channels[msg.sender] = Channel({\n            contractAddress:channelAdd,\n            subCount:0,\n            totalDonations:0,\n            donationCount:0\n        });\n        allChannels[TotalChannels] = msg.sender;\n        TotalChannels += 1;\n        success = true;\n    }\n\n    function unregisterChannel() returns (bool success) {\n        channels[msg.sender].contractAddress = address(0x0);\n        return true;\n    }\n\n    function channelExist(address addr) constant returns (bool exist) {\n        exist = false;\n        if (channels[addr].contractAddress != address(0x0)) {\n            exist = true;\n        }\n    }\n\n    function subscribeToChannel(address addr) returns (bool success) {\n        success = false;\n        if (!channelExist(addr)) {\n            revert();\n        }\n        if (alreadySubscribed(msg.sender, addr)) {\n            revert();\n        }\n        subs[msg.sender].push(addr);\n        channels[addr].subCount = channels[addr].subCount + 1;\n    }\n\n    function returnChannels() constant returns (address[] _subs) {\n        _subs = subs[msg.sender];\n    }\n    \n    function totalSubscribers(address addr) constant returns (uint total) {\n        total = channels[addr].subCount;\n    }\n\n    function donateTo(address _channel, uint256 _amount) returns (bool success) {\n        success = false;\n        if (!channelExist(_channel)) {\n            revert();\n        }\n        if (_amount <= 0) {\n            revert();\n        }\n        HueyToken hueyTokenInstance = HueyToken(hueyTokenAddress);\n        var ret = hueyTokenInstance.donate(_channel, _amount);\n        if (ret) {\n            channels[_channel].totalDonations = channels[_channel].totalDonations + _amount;\n            channels[_channel].donationCount = channels[_channel].donationCount + 1;\n            success = true;\n        }\n        return success;\n    }\n\n    function alreadySubscribed(address sender, address channel) internal constant returns (bool subscribed) {\n        subscribed = false;\n        for (uint256 i = 0; i < subs[sender].length; i++) {\n            if (subs[sender][i] == channel) {\n                subscribed = true;\n            }\n        }\n    }\n\n    function returnContractAddress(address channel) constant returns (address conAddr) {\n        conAddr = channels[channel].contractAddress;\n    }\n    function returnSubCount(address channel) constant returns (uint256 subCount) {\n        subCount = channels[channel].subCount;\n    }\n    function returnTotalDonations(address channel) constant returns (uint256 totalDonations) {\n        totalDonations = channels[channel].totalDonations;\n    }\n    function returnDonationCount(address channel) constant returns (uint256 donationCount) {\n        donationCount = channels[channel].donationCount;\n    }\n    function returnChannelCount() constant returns (uint256 channelCount) {\n        channelCount = TotalChannels;\n    }\n}\n",
  "sourcePath": "/home/rick/Desktop/contracts/contracts/Subscriptions.sol",
  "compiler": {
    "name": "solc",
    "version": "0.4.19+commit.c4cbbb05.Emscripten.clang"
  },
  "schemaVersion": "2.0.0",
  "updatedAt": "2018-02-28T17:43:53.852Z"
}